:100000000C945E000C9486000C9486000C94860080
:100010000C9486000C9486000C9486000C94860048
:100020000C9486000C9486000C9486000C94860038
:100030000C9486000C9486000C9486000C94860028
:100040000C94ED020C9486000C9486000C948600AF
:100050000C9486000C9486000C9486000C94860008
:100060000C9486000C9486000000000024002700F9
:100070002A0000000000250028002B0004040404CE
:100080000404040402020202020203030303030342
:10009000010204081020408001020408102001021F
:1000A00004081020000000080002010000030407FB
:1000B0000000000000000000DD04010511241FBE47
:1000C000CFEFD8E0DEBFCDBF11E0A0E0B1E0E0E0CF
:1000D000FDE002C005900D92AA38B107D9F721E0E2
:1000E000AAE8B1E001C01D92AB3EB207E1F710E013
:1000F000CDE5D0E004C02197FE010E943905CC3542
:10010000D107C9F70E9437030C9473060C940000C2
:1001100090E0FC01EC55FF4F2491FC01E057FF4FAC
:100120003491FC01E458FF4FE491EE23B9F122230E
:1001300039F1233091F038F42130A9F0223001F563
:1001400084B58F7D12C0273091F02830A1F0243083
:10015000B9F4809180008F7D03C0809180008F77FB
:10016000809380000DC084B58F7784BD09C08091D5
:10017000B0008F7703C08091B0008F7D8093B00076
:10018000F0E0EE0FFF1FEE58FF4FA591B4918FB72F
:10019000F894EC9130953E233C938FBF0895CF9314
:1001A000DF9390E0FC01E057FF4F2491FC01E458FD
:1001B000FF4F8491882361F190E0880F991FFC0123
:1001C000E859FF4FC591D491FC01EE58FF4FA5911E
:1001D000B491611109C09FB7F8948881209582235A
:1001E0008883EC912E230BC0623061F49FB7F894A2
:1001F0003881822F809583238883EC912E2B2C933A
:100200009FBF06C08FB7F894E8812E2B28838FBF3D
:10021000DF91CF9108953FB7F89480918F0190912D
:100220009001A0919101B091920126B5A89B05C0C3
:100230002F3F19F00196A11DB11D3FBFBA2FA92F65
:10024000982F8827820F911DA11DB11DBC01CD01E2
:1002500042E0660F771F881F991F4A95D1F70895CE
:100260000F931F93DC0112968D919C911397681741
:10027000790708F043C017968C911797882361F08F
:10028000489FA0011124452F289F90011124232F5E
:10029000089F80011124012F1D968C911D971A969D
:1002A0009C911A971896ED91FC911997891308C0A3
:1002B000CB01880F991F680F791F6E0F7F1F0AC02F
:1002C000660F771F660F771F6E0F7F1FFB01E80F0A
:1002D000F11D10821A968C911A97FB01E80FF11DFF
:1002E00040831B968C911B97FB01E80FF11D208327
:1002F0001C968C91FB01E80FF11D00831F910F915B
:100300000895CF92DF92EF92FF920F931F93CF93B6
:10031000DF93CDB7DEB729970FB6F894DEBF0FBED7
:10032000CDBF8C01DC0118968D919C911997892B7A
:1003300009F4A3C00E940B01F801C684D784E088A9
:10034000F188DC01CB018C199D09AE09BF098C3203
:100350009140A105B10570F3F894D80114968D91E0
:100360009C9115979A8389831896ED91FC91199722
:100370007F01BFEFEB1AFB0A80818987F80190812A
:100380000288F389E02DD80154968C91992309F4C1
:1003900030C09081982B98879081809589238F8396
:1003A0008F818C8388E08B8358856F8149853B8161
:1003B0002C8189819A81D701508347FD252F3A9559
:1003C0002083262F39F0441F00C000006083000006
:1003D00000C0F2CF38E04D9160830000019761F7D3
:1003E000D8015396FC93EE93529749873B832C8315
:1003F0003AC09081982B98879081809589238F832C
:100400008F818E8388E08D8358856F8149853D81FA
:100410002E8189819A81D701508347FD252F00C005
:1004200000C0208300C000C000C000C000C06083C6
:100430000000262F3A9541F0441F000000C000C084
:1004400000C000C000C0E8CF38E04D9100C060831C
:1004500000C0019709F7D8015396FC93EE93529789
:1004600049873D832E839A83898378940E940B0168
:10047000F80166877787808B918B29960FB6F89461
:10048000DEBF0FBECDBFDF91CF911F910F91FF90C7
:10049000EF90DF90CF900895CF93DF93EC018E81A2
:1004A00087FD06C061E00E94CF008E810E94880017
:1004B00081E08983DF91CF910895CF93DF93EC01A1
:1004C00088859985009711F00E94D4058E8187FD5B
:1004D00005C060E0DF91CF910C94CF00DF91CF9108
:1004E0000895CF92DF92EF92FF921F93CF93DF9305
:1004F000EC017B01142F19821F821E861F86188A29
:10050000198AC90146E0969587954A95E1F7482FE3
:1005100043704D87C90154E0969587955A95E1F748
:1005200083708A87B901769567957695679563702C
:100530006B87922F93709C8791E02F3F310511F0CC
:1005400008F090E09883481719F084E090E002C02A
:1005500083E090E08E9D60018F9DD00C9E9DD00C1D
:100560001124DD82CC82C6010E943F0599878887CD
:10057000009741F0A60160E070E00E946C06FB82EB
:10058000EA8204C01D821C821B821A821E8389811A
:10059000882339F061E0812F0E94CF00812F0E94D3
:1005A0008800812F90E0FC01E458FF4FE491F0E0D7
:1005B000EE0FFF1FEE58FF4F259134913B8B2A8B96
:1005C000FC01E057FF4FE491EC8BDF91CF911F913D
:1005D000FF90EF90DF90CF9008951F920F920FB68B
:1005E0000F9211242F933F938F939F93AF93BF93B9
:1005F00080918B0190918C01A0918D01B0918E0121
:1006000030918A0123E0230F2D3720F40196A11D9C
:10061000B11D05C026E8230F0296A11DB11D209330
:100620008A0180938B0190938C01A0938D01B093EC
:100630008E0180918F0190919001A0919101B091D4
:1006400092010196A11DB11D80938F01909390019D
:10065000A0939101B0939201BF91AF919F918F911F
:100660003F912F910F900FBE0F901F901895789487
:1006700084B5826084BD84B5816084BD85B58260A7
:1006800085BD85B5816085BD80916E008160809358
:100690006E001092810080918100826080938100C1
:1006A00080918100816080938100809180008160D1
:1006B000809380008091B10084608093B10080912C
:1006C000B00081608093B00080917A008460809354
:1006D0007A0080917A00826080937A0080917A001B
:1006E000816080937A0080917A00806880937A009C
:1006F0001092C10082ED91E00E944C028DEB91E0DE
:100700000E944C0288EA91E00E944C0283E991E049
:100710000E944C0282ED91E00E9481018DEB91E0FC
:100720000E94810188EA91E00E94810183E991E0C1
:100730000E948101212C63E0362E7EE5672E712C0C
:10074000CFE753E5C52E51E0D52E5601E12CF12C13
:10075000F501EE0DFF1D608170E000E02FEF40E03D
:1007600088EA91E00E9430012FEFE21AF20A84E059
:10077000E816F10469F7E5E0AE0EB11CF5E8AF1636
:10078000F1E0BF0619F738E4832E31E0932E43E5FC
:10079000A42E41E0B42E2401E12CF12CF201408181
:1007A0004C9F402D1124F501EE0DFF1D608170E07E
:1007B00000E0242F88EA91E00E943001FFEFEF1A59
:1007C000FF0A24E0E216F10449F78FEF481A580AAD
:1007D000E5E0AE0EB11CF5E8AF16F1E0BF06E1F6BC
:1007E0002DE3A22E21E0B22E2501E12CF12CF20105
:1007F00040814C9F402D1124F601EE0DFF1D6081BC
:1008000070E000E0242F88EA91E00E943001FFEFC1
:10081000EF1AFF0A24E0E216F10449F78FEF481AB5
:10082000580AE5E0CE0ED11CF5E8CF16F1E0DF0660
:10083000E1F696E0E92E91E0F92E2701C12CD12CAA
:10084000F201EC0DFD1D608170E000E02FEF40E053
:1008500083E991E00E9430012FEFC21AD20A84E0AE
:10086000C816D10469F7E5E04E0E511CF8E34F16A7
:10087000F1E05F0619F786E0482E81E0582EC12C82
:10088000D12CF40140814C9F402D1124F201EC0D3C
:10089000FD1D608170E000E0242F83E991E00E945B
:1008A0003001FFEFCF1ADF0A24E0C216D10449F766
:1008B0008FEF881A980AE5E04E0E511CF8E34F16A8
:1008C000F1E05F06E1F6C12CD12CF50140814C9F8F
:1008D000402D1124F701EC0DFD1D608170E000E05A
:1008E000242F83E991E00E943001FFEFCF1ADF0A45
:1008F00024E0C216D10449F78FEFA81AB80AE5E040
:10090000EE0EF11CF8E3EF16F1E0FF06E1F6C12C64
:10091000D12CE12CF12CC6016FE570E00E94250579
:10092000CB01B1010E9411058F3F910509F008F438
:100930003FC0811522E0920728F4B82E982E90949B
:10094000A12C04C0A82EB82EB194912C0B2D292DCA
:100950004A2DB70182ED91E00E943001B3016E197A
:100960007F09292D4A2D8DEB91E00E9430018FEFF8
:10097000E81AF80AEDEFDE1AFFE5EF16F10459F672
:1009800082ED91E00E9481018DEB91E00E94810156
:1009900088EA91E00E94810183E991E00E9481014F
:1009A00080E090E0892B09F4CCCE0E940000C8CEF4
:1009B000982EA82EA094B12CC9CF26E030E042E0BA
:1009C0006FE570E082ED91E00E94710226E030E078
:1009D00043E06FE570E08DEB91E00E94710226E04C
:1009E00030E044E068E270E088EA91E00E94710241
:1009F00026E030E045E068E270E083E991E00C94A5
:100A0000710283E991E00E945D0288EA91E00E9410
:100A10005D028DEB91E00E945D0282ED91E00C940D
:100A20005D02AA1BBB1B51E107C0AA1FBB1FA61773
:100A3000B70710F0A61BB70B881F991F5A95A9F787
:100A400080959095BC01CD01089597FB072E16F473
:100A5000009407D077FD09D00E94110507FC05D04E
:100A60003EF4909581959F4F0895709561957F4FC5
:100A70000895EE0FFF1F0590F491E02D0994CF9398
:100A8000DF938230910510F482E090E0E091E9017B
:100A9000F091EA0120E030E0C0E0D0E0309711F1C1
:100AA0004081518148175907C0F04817590761F430
:100AB00082819381209719F09B838A832BC0909326
:100AC000EA018093E90126C02115310519F042178A
:100AD000530718F49A01BE01DF01EF010280F38190
:100AE000E02DDCCF2115310509F1281B390B24300D
:100AF000310590F412968D919C91139761157105B3
:100B000021F0FB019383828304C09093EA018093D8
:100B1000E901FD01329644C0FD01E20FF31F81930C
:100B20009193225031092D933C933AC02091E701D3
:100B30003091E801232B41F420910201309103010F
:100B40003093E8012093E7012091000130910101E9
:100B50002115310541F42DB73EB740910401509164
:100B60000501241B350BE091E701F091E801E21744
:100B7000F307A0F42E1B3F0B2817390778F0AC01C0
:100B80004E5F5F4F2417350748F04E0F5F1F50939D
:100B9000E8014093E7018193919302C0E0E0F0E027
:100BA000CF01DF91CF9108950F931F93CF93DF93E0
:100BB000009709F48CC0FC013297138212820091D5
:100BC000E9011091EA010115110581F420813181BB
:100BD000820F931F2091E7013091E8012817390710
:100BE00079F5F093E801E093E70171C0D80140E0A6
:100BF00050E0AE17BF0750F412962D913C91139719
:100C0000AD012115310509F1D901F3CF9D01DA01BB
:100C10003383228360817181860F971F8217930728
:100C200069F4EC0128813981260F371F2E5F3F4F71
:100C3000318320838A819B8193838283452B29F48E
:100C4000F093EA01E093E90142C01396FC93EE931E
:100C50001297ED01499159919E01240F351FE2171A
:100C6000F30771F480819181840F951F029611968C
:100C70009C938E938281938113969C938E9312976B
:100C8000E0E0F0E0D80112968D919C9113970097C7
:100C900019F0F8018C01F6CF8D919C9198012E5F8F
:100CA0003F4F820F931F2091E7013091E8012817F1
:100CB000390769F4309729F41092EA011092E9019A
:100CC00002C0138212821093E8010093E701DF91C2
:100CD000CF911F910F910895DC0101C06D93415098
:100CE0005040E0F7089510E0CDE5D0E004C0FE01EB
:100CF0000E9439052196CE35D107C9F7F894FFCF68
:100D00000000EB018000242527260023221C1D0063
:100D100021201E1F001B1A10110019181213001792
:100D2000161415000F0E0706000D0C0504000B0A23
:100D30000302000908010000000000000001010199
:100D4000000100000000000000010101010100019C
:100D5000010000242527260023221C1D0021201E1F
:100D60001F001B1A10110019181213001716141562
:100D7000000F0E0001000D0E0203000B0A04050017
:0A0D8000090806070000000000004B
:107E0000112484B714BE81FFF0D085E080938100F7
:107E100082E08093C00088E18093C10086E0809377
:107E2000C20080E18093C4008EE0C9D0259A86E02C
:107E300020E33CEF91E0309385002093840096BBD3
:107E4000B09BFECF1D9AA8958150A9F7CC24DD24C4
:107E500088248394B5E0AB2EA1E19A2EF3E0BF2EE7
:107E6000A2D0813461F49FD0082FAFD0023811F036
:107E7000013811F484E001C083E08DD089C08234E0
:107E800011F484E103C0853419F485E0A6D080C0E4
:107E9000853579F488D0E82EFF2485D0082F10E0AE
:107EA000102F00270E291F29000F111F8ED06801E7
:107EB0006FC0863521F484E090D080E0DECF843638
:107EC00009F040C070D06FD0082F6DD080E0C81688
:107ED00080E7D80618F4F601B7BEE895C0E0D1E017
:107EE00062D089930C17E1F7F0E0CF16F0E7DF06D8
:107EF00018F0F601B7BEE89568D007B600FCFDCFD4
:107F0000A601A0E0B1E02C9130E011968C91119780
:107F100090E0982F8827822B932B1296FA010C0160
:107F200087BEE89511244E5F5F4FF1E0A038BF0790
:107F300051F7F601A7BEE89507B600FCFDCF97BE46
:107F4000E89526C08437B1F42ED02DD0F82E2BD052
:107F50003CD0F601EF2C8F010F5F1F4F84911BD097
:107F6000EA94F801C1F70894C11CD11CFA94CF0C13
:107F7000D11C0EC0853739F428D08EE10CD085E9AC
:107F80000AD08FE07ACF813511F488E018D01DD067
:107F900080E101D065CF982F8091C00085FFFCCF94
:107FA0009093C60008958091C00087FFFCCF809118
:107FB000C00084FD01C0A8958091C6000895E0E648
:107FC000F0E098E1908380830895EDDF803219F02E
:107FD00088E0F5DFFFCF84E1DECF1F93182FE3DFCA
:107FE0001150E9F7F2DF1F91089580E0E8DFEE27F6
:047FF000FF270994CA
:027FFE00040479
:0400000300007E007B
:00000001FF
